:0C0000001DC0FECFFDCFFCCF14C2FACF14
:10000C00F9CFF8CFA7C1F6CFF5CFF4CFF3CFF2CF1E
:10001C00F1CFF0CFEFCFEECFEDCF8040201000002E
:10002C000000020002002A00020004002C00000064
:10003C00F894EE27ECBBF1E0FBBFEBBFE5BFF8E1BA
:10004C00F1BDE1BD8DE0A2E0BB27ED938A95E9F708
:10005C0080E094E0A0E6ED930197E9F7EEE2F0E0A2
:10006C0085919591009761F0A591B59105901590AA
:10007C00BF01F00105900D920197E1F7FB01F0CF64
:10008C00EFE5EDBFE4E0EEBFC0E6D1E053C2E4EE35
:10009C00E6BFE6B7E078E9F30895E4E9E6BF089532
:1000AC00AA93E881E3B9E4E8E6BFE6B7E078E9F3C0
:1000BC0027C0AA931A93A981A13011F4E4EC01C0D2
:1000CC00E4E8E6BFE6B7E078E9F313B1E12F188175
:1000DC0022960895AA93E881E07F6ED22CD3AAE0F1
:1000EC00EA02F001AE2FE881EF70EA0F09C0AA9383
:1000FC00A88164D2A0E1EA02602DA88164D2E60F47
:10010C002196089565D2AEE0CBDFA0E0C9DFA8E868
:10011C00C7DFC3DF0895BA93AA935AD2A0E0C0DF19
:10012C00BCDFB5DFA1EDBCDF56D2AC85BD8557D2A7
:10013C00AA85BB8554D2A885B98551D2AE81BF8121
:10014C004ED2AC81BD814BD2AA81BB81EC93A0E095
:10015C00B0DFAE2FBFDFA881B981EC939EDF2E9666
:10016C000895AA9335D2A0E09BDFAE813AD2AD813F
:10017C0038D2AC8136D2AB8134D2AA8132D2A981A9
:10018C0030D2A8812ED289DF27960895E7E0CE16CB
:10019C0018F42AD2319601C0E0E0CE2E08951A93BD
:1001AC001FE1EA2D09D222D211F024D209F402C0A7
:1001BC0025D209F402C026D209F402C027D209F4D0
:1001CC0004C0EA30A0E0FA0709F404C0EC30A0E067
:1001DC00FA0711F41FE11DC01DD211F01FD209F452
:1001EC0004C0E930A0E0FA0709F404C0EB30A0E049
:1001FC00FA0711F41EE10DC015D259F4AD2DBB2731
:10020C00E4E0F0E0B9D2309711F4EDE101C0ECE19B
:10021C001E2FE12F19910895E7D1309719F4E8E0DA
:10022C00CE2E49C0E3D149F4E3E6DE1618F4ED2DE9
:10023C00FDD101C0E0E0FDD13EC0F4D149F4ECE0C9
:10024C00AE1618F4EA2DF2D101C0E1E0FBD133C0B7
:10025C00D1D149F4E7E08E1618F4E82DE7D101C0AE
:10026C00E1E0F9D128C0D6D149F499DFBE1618F4D3
:10027C00EB2DDCD101C0E1E0F7D11DC0BFD149F4B9
:10028C00E7E19E1618F4E92DD1D101C0E0E0F5D1DB
:10029C0012C0C4D149F4EBE36E1618F4E62DC6D1A6
:1002AC0001C0E0E0F3D107C0ADD111F4F8D103C027
:1002BC00ADD109F4CC24089597D1309709F449C0F5
:1002CC0095D149F4E0E0ED1518F4ED2DF1D101C014
:1002DC00E3E6AFD13EC0A6D149F4E1E0EA1518F44B
:1002EC00EA2DE6D101C0ECE0ADD133C083D149F4A5
:1002FC00E1E0E81518F4E82DDBD101C0E7E0ABD163
:10030C0028C088D149F4E1E0EB1518F4EB2DD0D1DD
:10031C0001C045DFA9D11DC071D149F4E0E0E91558
:10032C0018F4E92DC5D101C0E7E1A7D112C076D1EF
:10033C0049F4E0E0E61518F4E62DBAD101C0EBE380
:10034C00A5D107C05FD111F4AAD103C05FD109F4C4
:10035C00CC2408950A921A92FA926A937A938A9309
:10036C009A93AA93BA93EA93FA93EFB7EA9398996C
:10037C0015C020FE10C023FE09C026FE04C006DFF7
:10038C00E89499D101C0689426F804C0689423F8C5
:10039C00E89426F803C068948ED126F8999915C074
:1003AC0021FE10C024FE09C027FE04C035DFE894EE
:1003BC0086D101C0689427F804C0689424F8E894A6
:1003CC0027F803C068947BD127F89A9915C022FEB0
:1003DC0010C025FE09C030FE04C06EDFE89473D156
:1003EC0001C0689430F804C0689425F8E89430F89B
:1003FC0003C0689468D130F8E0E0F0E0FDBDECBDDE
:10040C00C69B02C0C69801C0C69AE991EFBFF9918C
:10041C00E991B991A9919991899179916991F99001
:10042C00199009901895AA93EA93FA93EFB7EA9367
:10043C004420B9F4E2B3E070E2BBE52DBDD0E05A44
:10044C00FE4FE081E2BBE2B3AE2FE52DB5D0EA5D05
:10045C00FF4FE491EA2BE2BB5394E3E0E51508F47B
:10046C005524E991EFBFF991E991A9911895BCD068
:10047C00309759F4A92DA2D02AD1A92DA4D02AD1D4
:10048C00A62D9CD02AD1A62D4EC0B0D041F428D197
:10049C00E1E020D1AD2D92D020D1AD2D44C0C2D001
:1004AC0041F41ED1E2E016D1AA2D88D016D1AA2D86
:1004BC003AC0A0D041F414D1E3E00CD1A82D7ED0E9
:1004CC000CD1A82D30C0A6D041F40AD1E4E002D161
:1004DC00AB2D74D002D1AB2D26C090D049F4E9E0FD
:1004EC00F6D0E1E0F7D0A92D69D0F7D0A92D1BC02B
:1004FC0095D049F4E9E0EBD0E2E0ECD0A62D5ED04B
:10050C00ECD0A62D10C07ED021F4E9E0E0D0E3E0E1
:10051C0004C07CD071F4E4D0E0E0E0936101A72D3D
:10052C004DD0DBD0A72DBB27EAE0F0E025D1E0933E
:10053C006301089510E0EFEFE8BBE7BBE7E0E5BB34
:10054C00E8EFE4BBEFEFE2BBE1BBE0E0E3BFE2BF0F
:10055C00EFBDE2E0EEBDE0E0EDBDECBDE7BDE6BD1C
:10056C00EBBDEABDE9BDE8BDE2BDE5E0E5BDE0E01F
:10057C00E4BDE3BDE5BFE4E4E9BFE0E0EAB9E0E8EF
:10058C00E8B9E0E0E0BFE6B9EDB9ECE0E0B9E0EDE8
:10059C00E2B9E4E4E6BF7894B5DDA4D000E0A2D0E3
:1005AC000F5F053019F4E2E03E2600E060DFA4E6C0
:1005BC00B0E0B3D0F4CFFFCFF0E00895B0E0EAE0C4
:1005CC00F0E0D5D00895BB27EAE0F0E0D5D008954F
:1005DC005EDDA0ED65CDA1E06CDDAE2F7BCDEC93A7
:1005EC00FACF85DDAE2F5CCDEC2DE6CFE130A0E06F
:1005FC00FA070895E330A0E0FA070895E530A0E08B
:10060C00FA070895E730A0E0FA070895E830A0E073
:10061C00FA070895E430A0E0FA070895E630A0E068
:10062C00FA070895E230A0E0FA070895C5DF319685
:10063C000895DE2E7A926A929A928A92BA92AA922D
:10064C00AD2D8FCDAE2E7A926A929A928A92BA92F0
:10065C00AA92AD2D86CD8E2E7A926A929A928A9219
:10066C00BA92AA92AD2D7DCDBE2E7A926A929A92B2
:10067C008A92BA92AA92AD2D74CD9E2E7A926A92DB
:10068C009A928A92BA92AA92AD2D6BCD6E2E7A92D4
:10069C006A929A928A92BA92AA92AD2D62CD7724DE
:1006AC007A926A929A928A92BA92AA92AD2D59CD66
:1006BC0083DF3197089520F8E89423F8089521F802
:1006CC00E89424F8089522F8E89425F80895E09326
:1006DC0060010895E09361010895E093620108952B
:1006EC00E0E0F5CFE7E0F0E0FA93EA93E6E0F0E043
:1006FC00FA93EA93E9E0F0E0FA93EA93E8E0F0E0A9
:10070C00FA93EA93EBE0F0E0FA93EA93EAE0F0E094
:10071C00FA93EA93ADE0B0E0FECC109639F080EDA0
:10072C0097E00197F1F7A8951197C9F70895F195FE
:10073C00E195F0400895F595E795F595E795F595D4
:10074C00E795F595E79508950024112490E1AA0FFB
:10075C00BB1F001C111C0E1A1F0A18F40E0E1F1EB4
:10076C0001C0A1609A9599F7FD01D001089512D0AE
:10077C00EBDF0EF4DCDF0895E894B7FF04C0A0951E
:10078C00B09511966894F7FDD2DFDEDFFD010EF413
:10079C00CEDF0895E894F7FF02C0C9DF6894B7FF75
:1007AC0006C0A095B095119600F8039400FA089530
:00000001FF
