:0800000023C0FECFFDCFFCCFB1
:100008001DC2FACFF9CFF8CFB0C1F6CFF5CFF4CFF4
:10001800F3CFF2CFF1CFF0CFEFCFEECFEDCF00019E
:1000280002030405060708098040201000000000AC
:100038000000020002003400040004003600000042
:10004800F894EE27ECBBF1E0FBBFEBBFE5BFF8E1AE
:10005800F1BDE1BD8DE0A2E0BB27ED938A95E9F7FC
:1000680080E094E0A0E6ED930197E9F7EAE3F0E099
:1000780085919591009761F0A591B591059015909E
:10008800BF01F00105900D920197E1F7FB01F0CF58
:10009800EFE5EDBFE4E0EEBFC0E6D1E09DC2E4EEDF
:1000A800E6BFE6B7E078E9F30895E4E9E6BF089526
:1000B800AA93E881E3B9E4E8E6BFE6B7E078E9F3B4
:1000C800F2C1AA931A93A981A13011F4E4EC01C0FA
:1000D800E4E8E6BFE6B7E078E9F313B1E12F188169
:1000E80022960895AA93E881E07FB8D277D3AAE050
:1000F800EA02F001AE2FE881EF70EA0FD4C1AA93AB
:10010800A881AED2A0E1EA02602DA881AED2E60FA6
:10011800CAC1B0D2AEE0CCDFA0E0CADFA8E8C8DF31
:10012800C4DF0895BA93AA93A5D2A0E0C1DFBDDFCA
:10013800B6DFA1EDBDDFA1D2AC85BD85A2D2AA856F
:10014800BB859FD2A885B9859CD2AE81BF8199D243
:10015800AC81BD8196D2AA81BB81EC93A0E0B1DFCE
:10016800AE2FC0DFA881B981EC939FDF2E9608954A
:10017800AA9380D2A0E09CDFAE8185D2AD8183D2E4
:10018800AC8181D2AB817FD2AA817DD2A9817BD279
:10019800A88179D28ADF27960895A0916401A730B3
:1001A80018F474D2319601C0E0E0E0936401089538
:1001B8001A931FE1ED2D52D26CD211F06ED209F4D0
:1001C80002C06FD209F402C070D209F402C071D221
:1001D80009F404C0EA30A0E0FA0709F404C0EC30DE
:1001E800A0E0FA0711F41FE11DC067D211F069D22F
:1001F80009F404C0E930A0E0FA0709F404C0EB30C0
:10020800A0E0FA0711F41EE10DC05FD259F4AC2D3D
:10021800BB27E4E0F0E008D3309711F4EDE101C02A
:10022800ECE11E2FE12F7BC131D2309711F4E8E0C9
:1002380049C02FD249F4E3E6CE1618F4EC2D49D282
:1002480001C0E0E049D240C040D249F4ECE0DE16FB
:1002580018F4ED2D3ED201C0E1E047D235C01DD2E1
:1002680049F4E7E0BE1618F4EB2D33D201C0E1E003
:1002780045D22AC022D249F49BDFAE1618F4EA2DE3
:1002880028D201C0E1E043D21FC00BD249F4E7E114
:100298008E1618F4E82D1DD201C0E0E041D214C03A
:1002A80010D249F4EBE39E1618F4E92D12D201C0DE
:1002B800E0E03FD209C0F9D111F444D205C0F9D128
:1002C80019F4E0E0E09364010895E0D1309709F46F
:1002D8004BC0DFD149F4E0E0EC1518F4EC2D3BD22B
:1002E80001C0E3E6F9D140C0F0D149F4E1E0ED15F1
:1002F80018F4ED2D30D201C0ECE0F7D135C0CDD1E6
:1003080049F4E1E0EB1518F4EB2D25D201C0E7E044
:10031800F5D12AC0D2D149F4E1E0EA1518F4EA2D62
:100328001AD201C045DFF3D11FC0BBD149F4E0E0C8
:10033800E81518F4E82D0FD201C0E7E1F1D114C097
:10034800C0D149F4E0E0E91518F4E92D04D201C060
:10035800EBE3EFD109C0A9D111F4F4D105C0A9D1BB
:1003680019F4E0E0E093640108950A921A92FA926F
:100378006A937A938A939A93AA93BA93EA93FA938D
:10038800EFB7EA93989915C020FE10C023FE09C064
:1003980026FE04C002DFE894E1D101C0689426F883
:1003A80004C0689423F8E89426F803C06894D6D16A
:1003B80026F8999915C021FE10C024FE09C027FE11
:1003C80004C032DFE894CED101C0689427F804C095
:1003D800689424F8E89427F803C06894C3D127F8F0
:1003E8009A9915C022FE10C025FE09C030FE04C02F
:1003F8006CDFE894BBD101C0689430F804C06894FD
:1004080025F8E89430F803C06894B0D130F8E0E0FB
:10041800F0E0FDBDECBDC69B02C0C69801C0C69AFF
:10042800E991EFBFF991E991B991A99199918991D0
:1004380079916991F9901990099018950A92AA935F
:10044800EA93FA93EFB7EA934420F9F4E2B3E07041
:10045800E2BBE52D03D1E05AFE4F7080EAE07E163C
:1004680078F4E72DFBD0EA5DFF4F049002BAE2B3BF
:10047800AE2FE52DF3D0E05DFF4FE491EA2BE2BB10
:100488005394E3E0E51508F45524E991EFBFF99199
:10049800E991A99109901895AA93E8811AD1DF01E9
:1004A800EAE0F0E0C1D1219608951A9310E032FEF7
:1004B8001CC010E01A30B0F4A0916001EDDF5AD1F1
:1004C800A0916101E9DF59D1A0916201E5DF58D11E
:1004D800A0916301E1DFE0936301ACE2B1E070D188
:1004E8001F5FE8CFE89432F81AC0A82DB9D042D1DE
:1004F800A82DBBD042D1A92DB3D042D1A92DB5D0BA
:10050800E0936601A091650172D1E0FB32F8E091B9
:100518006601E0936501E0916601E093630119913A
:100528000895B4D0309711F4C0DF55C0B2D041F46B
:100538002AD1E1E022D1AC2D93D022D1AC2D45C0F7
:10054800C4D041F420D1E2E018D1AD2D89D018D122
:10055800AD2D3BC0A2D041F416D1E3E00ED1AB2DB6
:100568007FD00ED1AB2D31C0A8D041F40CD1E4E03E
:1005780004D1AA2D75D004D1AA2D27C092D049F450
:10058800E9E0F8D0E1E0F9D0A82D6AD0F9D0A82D9B
:100598001CC097D049F4E9E0EDD0E2E0EED0A92DF7
:1005A8005FD0EED0A92D11C080D021F4E9E0E2D0CF
:1005B800E3E005C07ED079F4EAE0DCD0EAE0E0933D
:1005C8006101A62D4DD0DCD0A62DBB27EAE0F0E0D6
:1005D8002BD1E0936301089510E0EFEFE8BBE7BB90
:1005E800E7E0E5BBE8EFE4BBEFEFE2BBE1BBE0E04F
:1005F800E3BFE2BFEFBDE2E0EEBDE0E0EDBDECBD84
:10060800E7BDE6BDEBBDEABDE9BDE8BDE2BDE5E09D
:10061800E5BDE0E0E4BDE3BDE5BFE4E4E9BFE0E05B
:10062800EAB9E0E8E8B9E0E0E0BFE6B9EDB9ECE046
:10063800E0B9E0EDE2B9E4E4E6BF78946ADDA5D07C
:1006480000E0A3D00F5F053019F4E2E03E2600E099
:1006580068DFA4E6B0E0B4D0F4CFFFCFF0E00895AF
:10066800B0E0EAE0F0E0DBD00895BB27EAE0F0E094
:10067800DBD0089514DDA0ED1BCDA1E022DDAE2F67
:1006880031CDEC93FACF3BDDAE2F12CDE091640172
:10069800E5CFE130A0E0FA070895E330A0E0FA07DB
:1006A8000895E530A0E0FA070895E730A0E0FA07DA
:1006B8000895E830A0E0FA070895E430A0E0FA07CA
:1006C8000895E630A0E0FA070895E230A0E0FA07BE
:1006D8000895C4DF31960895CE2E6A929A928A922E
:1006E800BA92AA92DA92AC2D43CDDE2E6A929A92F1
:1006F8008A92BA92AA92DA92AC2D3ACDBE2E6A921A
:100708009A928A92BA92AA92DA92AC2D31CDAE2EF2
:100718006A929A928A92BA92AA92DA92AC2D28CDCB
:100728008E2E6A929A928A92BA92AA92DA92AC2DF4
:100738001FCD9E2E6A929A928A92BA92AA92DA92C1
:10074800AC2D16CD66246A929A928A92BA92AA928F
:10075800DA92AC2D0DCD82DF3197089520F8E89418
:1007680023F8089521F8E89424F8089522F8E894E5
:1007780025F80895E09360010895E09361010895D4
:10078800E09362010895E8E0F5CFE6E0F0E0FA933F
:10079800EA93E9E0F0E0FA93EA93E8E0F0E0FA930C
:1007A800EA93EBE0F0E0FA93EA93EAE0F0E0FA93F8
:1007B800EA93EDE0F0E0FA93EA93ACE0B0E0B2CC73
:1007C800109639F080ED97E00197F1F7A895119709
:1007D800C9F70895F195E195F0400895F595E795E5
:1007E800F595E795F595E795F595E7950895EA1751
:1007F800E1E009F4EE2708950024112490E1AA0FFE
:10080800BB1F001C111C0E1A1F0A18F40E0E1F1E07
:1008180001C0A1609A9599F7FD01D001089512D001
:10082800EBDF0EF4D7DF0895E894B7FF04C0A09576
:10083800B09511966894F7FDCDDFDEDFFD010EF46B
:10084800C9DF0895E894F7FF02C0C4DF6894B7FFD2
:1008580006C0A095B095119600F8039400FA089583
:00000001FF
